{
  "contractName": "DrugTraceability",
  "abi": [
    {
      "inputs": [],
      "stateMutability": "nonpayable",
      "type": "constructor"
    },
    {
      "anonymous": false,
      "inputs": [
        {
          "indexed": false,
          "internalType": "uint256",
          "name": "index",
          "type": "uint256"
        },
        {
          "indexed": false,
          "internalType": "uint256",
          "name": "timestamp",
          "type": "uint256"
        },
        {
          "indexed": false,
          "internalType": "uint256",
          "name": "proof",
          "type": "uint256"
        },
        {
          "indexed": false,
          "internalType": "string",
          "name": "previousHash",
          "type": "string"
        }
      ],
      "name": "NewBlock",
      "type": "event"
    },
    {
      "anonymous": false,
      "inputs": [
        {
          "indexed": true,
          "internalType": "address",
          "name": "sender",
          "type": "address"
        },
        {
          "indexed": true,
          "internalType": "address",
          "name": "recipient",
          "type": "address"
        },
        {
          "indexed": false,
          "internalType": "string",
          "name": "drugName",
          "type": "string"
        },
        {
          "indexed": false,
          "internalType": "uint256",
          "name": "timestamp",
          "type": "uint256"
        }
      ],
      "name": "NewTransaction",
      "type": "event"
    },
    {
      "anonymous": false,
      "inputs": [
        {
          "indexed": false,
          "internalType": "string",
          "name": "name",
          "type": "string"
        },
        {
          "indexed": false,
          "internalType": "address",
          "name": "recipient",
          "type": "address"
        }
      ],
      "name": "RecipientRegistered",
      "type": "event"
    },
    {
      "inputs": [
        {
          "internalType": "uint256",
          "name": "",
          "type": "uint256"
        }
      ],
      "name": "blockchain",
      "outputs": [
        {
          "internalType": "uint256",
          "name": "index",
          "type": "uint256"
        },
        {
          "internalType": "uint256",
          "name": "timestamp",
          "type": "uint256"
        },
        {
          "internalType": "uint256",
          "name": "proof",
          "type": "uint256"
        },
        {
          "internalType": "string",
          "name": "previousHash",
          "type": "string"
        }
      ],
      "stateMutability": "view",
      "type": "function",
      "constant": true
    },
    {
      "inputs": [
        {
          "internalType": "uint256",
          "name": "",
          "type": "uint256"
        }
      ],
      "name": "currentTransactions",
      "outputs": [
        {
          "internalType": "address",
          "name": "sender",
          "type": "address"
        },
        {
          "internalType": "address",
          "name": "recipient",
          "type": "address"
        },
        {
          "internalType": "string",
          "name": "drugName",
          "type": "string"
        },
        {
          "internalType": "uint256",
          "name": "timestamp",
          "type": "uint256"
        }
      ],
      "stateMutability": "view",
      "type": "function",
      "constant": true
    },
    {
      "inputs": [
        {
          "internalType": "string",
          "name": "",
          "type": "string"
        }
      ],
      "name": "recipientAddresses",
      "outputs": [
        {
          "internalType": "address",
          "name": "",
          "type": "address"
        }
      ],
      "stateMutability": "view",
      "type": "function",
      "constant": true
    },
    {
      "inputs": [
        {
          "internalType": "string",
          "name": "recipientName",
          "type": "string"
        },
        {
          "internalType": "address",
          "name": "recipientAddress",
          "type": "address"
        }
      ],
      "name": "registerRecipient",
      "outputs": [],
      "stateMutability": "nonpayable",
      "type": "function"
    },
    {
      "inputs": [
        {
          "internalType": "string",
          "name": "recipientName",
          "type": "string"
        },
        {
          "internalType": "string",
          "name": "drugName",
          "type": "string"
        }
      ],
      "name": "createTransaction",
      "outputs": [],
      "stateMutability": "nonpayable",
      "type": "function"
    },
    {
      "inputs": [
        {
          "internalType": "uint256",
          "name": "proof",
          "type": "uint256"
        }
      ],
      "name": "mineBlock",
      "outputs": [],
      "stateMutability": "nonpayable",
      "type": "function"
    },
    {
      "inputs": [],
      "name": "getAllTransactions",
      "outputs": [
        {
          "components": [
            {
              "internalType": "address",
              "name": "sender",
              "type": "address"
            },
            {
              "internalType": "address",
              "name": "recipient",
              "type": "address"
            },
            {
              "internalType": "string",
              "name": "drugName",
              "type": "string"
            },
            {
              "internalType": "uint256",
              "name": "timestamp",
              "type": "uint256"
            }
          ],
          "internalType": "struct DrugTraceability.Transaction[]",
          "name": "",
          "type": "tuple[]"
        }
      ],
      "stateMutability": "view",
      "type": "function",
      "constant": true
    },
    {
      "inputs": [],
      "name": "getBlockchain",
      "outputs": [
        {
          "components": [
            {
              "internalType": "uint256",
              "name": "index",
              "type": "uint256"
            },
            {
              "internalType": "uint256",
              "name": "timestamp",
              "type": "uint256"
            },
            {
              "components": [
                {
                  "internalType": "address",
                  "name": "sender",
                  "type": "address"
                },
                {
                  "internalType": "address",
                  "name": "recipient",
                  "type": "address"
                },
                {
                  "internalType": "string",
                  "name": "drugName",
                  "type": "string"
                },
                {
                  "internalType": "uint256",
                  "name": "timestamp",
                  "type": "uint256"
                }
              ],
              "internalType": "struct DrugTraceability.Transaction[]",
              "name": "transactions",
              "type": "tuple[]"
            },
            {
              "internalType": "uint256",
              "name": "proof",
              "type": "uint256"
            },
            {
              "internalType": "string",
              "name": "previousHash",
              "type": "string"
            }
          ],
          "internalType": "struct DrugTraceability.Block[]",
          "name": "",
          "type": "tuple[]"
        }
      ],
      "stateMutability": "view",
      "type": "function",
      "constant": true
    },
    {
      "inputs": [],
      "name": "getCurrentTransactions",
      "outputs": [
        {
          "components": [
            {
              "internalType": "address",
              "name": "sender",
              "type": "address"
            },
            {
              "internalType": "address",
              "name": "recipient",
              "type": "address"
            },
            {
              "internalType": "string",
              "name": "drugName",
              "type": "string"
            },
            {
              "internalType": "uint256",
              "name": "timestamp",
              "type": "uint256"
            }
          ],
          "internalType": "struct DrugTraceability.Transaction[]",
          "name": "",
          "type": "tuple[]"
        }
      ],
      "stateMutability": "view",
      "type": "function",
      "constant": true
    }
  ],
  "bytecode": "0x60806040523480156200001157600080fd5b506200005a60646040518060400160405280600c81526020017f47454e455349535f484153480000000000000000000000000000000000000000815250620000bb60201b60201c565b620000b56040518060400160405280600881526020017f4a6f686e20446f65000000000000000000000000000000000000000000000000815250731234567890abcdef1234567890abcdef123456786200031160201b60201c565b62000984565b60008060018160018154018082558091505003906000526020600020906005020190506000805490508160000181905550428160010181905550828160030181905550818160040190805190602001906200011892919062000422565b5060005b600180549050811015620002b457816002016001828154811062000169577f4e487b7100000000000000000000000000000000000000000000000000000000600052603260045260246000fd5b906000526020600020906004020190806001815401808255809150506001900390600052602060002090600402016000909190919091506000820160009054906101000a900473ffffffffffffffffffffffffffffffffffffffff168160000160006101000a81548173ffffffffffffffffffffffffffffffffffffffff021916908373ffffffffffffffffffffffffffffffffffffffff1602179055506001820160009054906101000a900473ffffffffffffffffffffffffffffffffffffffff168160010160006101000a81548173ffffffffffffffffffffffffffffffffffffffff021916908373ffffffffffffffffffffffffffffffffffffffff1602179055506002820181600201908054620002849062000891565b62000291929190620004b3565b506003820154816003015550508080620002ab90620008c7565b9150506200011c565b5060016000620002c591906200054b565b7fe5596cc43bf3112848aa4f379f67c7b0f647eab05b9c4ec222899924616a7808816000015482600101548585604051620003049493929190620007a2565b60405180910390a1505050565b600073ffffffffffffffffffffffffffffffffffffffff168173ffffffffffffffffffffffffffffffffffffffff16141562000384576040517f08c379a00000000000000000000000000000000000000000000000000000000081526004016200037b9062000780565b60405180910390fd5b8060028360405162000397919062000733565b908152602001604051809103902060006101000a81548173ffffffffffffffffffffffffffffffffffffffff021916908373ffffffffffffffffffffffffffffffffffffffff1602179055507f014e21873a9e3eac1bd858a5f47c5e6dfdddbfd01552506b1c63bb6be545e0158282604051620004169291906200074c565b60405180910390a15050565b828054620004309062000891565b90600052602060002090601f016020900481019282620004545760008555620004a0565b82601f106200046f57805160ff1916838001178555620004a0565b82800160010185558215620004a0579182015b828111156200049f57825182559160200191906001019062000482565b5b509050620004af919062000571565b5090565b828054620004c19062000891565b90600052602060002090601f016020900481019282620004e5576000855562000538565b82601f10620004f8578054855562000538565b828001600101855582156200053857600052602060002091601f016020900482015b82811115620005375782548255916001019190600101906200051a565b5b50905062000547919062000571565b5090565b50805460008255600402906000526020600020908101906200056e919062000590565b50565b5b808211156200058c57600081600090555060010162000572565b5090565b5b808211156200060d57600080820160006101000a81549073ffffffffffffffffffffffffffffffffffffffff02191690556001820160006101000a81549073ffffffffffffffffffffffffffffffffffffffff0219169055600282016000620005fb919062000611565b60038201600090555060040162000591565b5090565b5080546200061f9062000891565b6000825580601f1062000633575062000654565b601f01602090049060005260206000209081019062000653919062000571565b5b50565b62000662816200081d565b82525050565b60006200067582620007f6565b62000681818562000801565b9350620006938185602086016200085b565b6200069e8162000973565b840191505092915050565b6000620006b682620007f6565b620006c2818562000812565b9350620006d48185602086016200085b565b80840191505092915050565b6000620006ef600f8362000801565b91507f496e76616c6964206164647265737300000000000000000000000000000000006000830152602082019050919050565b6200072d8162000851565b82525050565b6000620007418284620006a9565b915081905092915050565b6000604082019050818103600083015262000768818562000668565b905062000779602083018462000657565b9392505050565b600060208201905081810360008301526200079b81620006e0565b9050919050565b6000608082019050620007b9600083018762000722565b620007c8602083018662000722565b620007d7604083018562000722565b8181036060830152620007eb818462000668565b905095945050505050565b600081519050919050565b600082825260208201905092915050565b600081905092915050565b60006200082a8262000831565b9050919050565b600073ffffffffffffffffffffffffffffffffffffffff82169050919050565b6000819050919050565b60005b838110156200087b5780820151818401526020810190506200085e565b838111156200088b576000848401525b50505050565b60006002820490506001821680620008aa57607f821691505b60208210811415620008c157620008c062000944565b5b50919050565b6000620008d48262000851565b91507fffffffffffffffffffffffffffffffffffffffffffffffffffffffffffffffff8214156200090a576200090962000915565b5b600182019050919050565b7f4e487b7100000000000000000000000000000000000000000000000000000000600052601160045260246000fd5b7f4e487b7100000000000000000000000000000000000000000000000000000000600052602260045260246000fd5b6000601f19601f8301169050919050565b61248280620009946000396000f3fe608060405234801561001057600080fd5b50600436106100935760003560e01c8063864713c711610066578063864713c714610123578063c25b1eaf14610141578063df8d1d6414610174578063f5e09eac14610190578063fecc18b4146101c057610093565b80631720b1bb1461009857806327506f53146100b457806335aaaf01146100d25780633d46424f14610105575b600080fd5b6100b260048036038101906100ad91906119eb565b6101dc565b005b6100bc6101f6565b6040516100c99190611f5a565b60405180910390f35b6100ec60048036038101906100e791906119eb565b6105c8565b6040516100fc9493929190611eec565b60405180910390f35b61010d6106d0565b60405161011a9190611f38565b60405180910390f35b61012b610986565b6040516101389190611f5a565b60405180910390f35b61015b600480360381019061015691906119eb565b610b2d565b60405161016b949392919061201c565b60405180910390f35b61018e6004803603810190610189919061192b565b610bf5565b005b6101aa60048036038101906101a591906118ea565b610cff565b6040516101b79190611ed1565b60405180910390f35b6101da60048036038101906101d5919061197f565b610d48565b005b60006101e6610f9c565b90506101f2828261104f565b5050565b60606000805b6000805490508110156102785760008181548110610243577f4e487b7100000000000000000000000000000000000000000000000000000000600052603260045260246000fd5b906000526020600020906005020160020180549050826102639190612199565b915080806102709061232d565b9150506101fc565b5060008167ffffffffffffffff8111156102bb577f4e487b7100000000000000000000000000000000000000000000000000000000600052604160045260246000fd5b6040519080825280602002602001820160405280156102f457816020015b6102e16115f3565b8152602001906001900390816102d95790505b5090506000805b6000805490508110156105be5760005b60008281548110610345577f4e487b7100000000000000000000000000000000000000000000000000000000600052603260045260246000fd5b9060005260206000209060050201600201805490508110156105aa576000828154811061039b577f4e487b7100000000000000000000000000000000000000000000000000000000600052603260045260246000fd5b906000526020600020906005020160020181815481106103e4577f4e487b7100000000000000000000000000000000000000000000000000000000600052603260045260246000fd5b90600052602060002090600402016040518060800160405290816000820160009054906101000a900473ffffffffffffffffffffffffffffffffffffffff1673ffffffffffffffffffffffffffffffffffffffff1673ffffffffffffffffffffffffffffffffffffffff1681526020016001820160009054906101000a900473ffffffffffffffffffffffffffffffffffffffff1673ffffffffffffffffffffffffffffffffffffffff1673ffffffffffffffffffffffffffffffffffffffff1681526020016002820180546104b9906122fb565b80601f01602080910402602001604051908101604052809291908181526020018280546104e5906122fb565b80156105325780601f1061050757610100808354040283529160200191610532565b820191906000526020600020905b81548152906001019060200180831161051557829003601f168201915b5050505050815260200160038201548152505084848151811061057e577f4e487b7100000000000000000000000000000000000000000000000000000000600052603260045260246000fd5b602002602001018190525082806105949061232d565b93505080806105a29061232d565b91505061030b565b5080806105b69061232d565b9150506102fb565b5081935050505090565b600181815481106105d857600080fd5b90600052602060002090600402016000915090508060000160009054906101000a900473ffffffffffffffffffffffffffffffffffffffff16908060010160009054906101000a900473ffffffffffffffffffffffffffffffffffffffff1690806002018054610647906122fb565b80601f0160208091040260200160405190810160405280929190818152602001828054610673906122fb565b80156106c05780601f10610695576101008083540402835291602001916106c0565b820191906000526020600020905b8154815290600101906020018083116106a357829003601f168201915b5050505050908060030154905084565b60606000805480602002602001604051908101604052809291908181526020016000905b8282101561097d57838290600052602060002090600502016040518060a0016040529081600082015481526020016001820154815260200160028201805480602002602001604051908101604052809291908181526020016000905b828210156108ca57838290600052602060002090600402016040518060800160405290816000820160009054906101000a900473ffffffffffffffffffffffffffffffffffffffff1673ffffffffffffffffffffffffffffffffffffffff1673ffffffffffffffffffffffffffffffffffffffff1681526020016001820160009054906101000a900473ffffffffffffffffffffffffffffffffffffffff1673ffffffffffffffffffffffffffffffffffffffff1673ffffffffffffffffffffffffffffffffffffffff16815260200160028201805461082f906122fb565b80601f016020809104026020016040519081016040528092919081815260200182805461085b906122fb565b80156108a85780601f1061087d576101008083540402835291602001916108a8565b820191906000526020600020905b81548152906001019060200180831161088b57829003601f168201915b5050505050815260200160038201548152505081526020019060010190610750565b505050508152602001600382015481526020016004820180546108ec906122fb565b80601f0160208091040260200160405190810160405280929190818152602001828054610918906122fb565b80156109655780601f1061093a57610100808354040283529160200191610965565b820191906000526020600020905b81548152906001019060200180831161094857829003601f168201915b505050505081525050815260200190600101906106f4565b50505050905090565b60606001805480602002602001604051908101604052809291908181526020016000905b82821015610b2457838290600052602060002090600402016040518060800160405290816000820160009054906101000a900473ffffffffffffffffffffffffffffffffffffffff1673ffffffffffffffffffffffffffffffffffffffff1673ffffffffffffffffffffffffffffffffffffffff1681526020016001820160009054906101000a900473ffffffffffffffffffffffffffffffffffffffff1673ffffffffffffffffffffffffffffffffffffffff1673ffffffffffffffffffffffffffffffffffffffff168152602001600282018054610a89906122fb565b80601f0160208091040260200160405190810160405280929190818152602001828054610ab5906122fb565b8015610b025780601f10610ad757610100808354040283529160200191610b02565b820191906000526020600020905b815481529060010190602001808311610ae557829003601f168201915b50505050508152602001600382015481525050815260200190600101906109aa565b50505050905090565b60008181548110610b3d57600080fd5b9060005260206000209060050201600091509050806000015490806001015490806003015490806004018054610b72906122fb565b80601f0160208091040260200160405190810160405280929190818152602001828054610b9e906122fb565b8015610beb5780601f10610bc057610100808354040283529160200191610beb565b820191906000526020600020905b815481529060010190602001808311610bce57829003601f168201915b5050505050905084565b600073ffffffffffffffffffffffffffffffffffffffff168173ffffffffffffffffffffffffffffffffffffffff161415610c65576040517f08c379a0000000000000000000000000000000000000000000000000000000008152600401610c5c90611fdc565b60405180910390fd5b80600283604051610c769190611e70565b908152602001604051809103902060006101000a81548173ffffffffffffffffffffffffffffffffffffffff021916908373ffffffffffffffffffffffffffffffffffffffff1602179055507f014e21873a9e3eac1bd858a5f47c5e6dfdddbfd01552506b1c63bb6be545e0158282604051610cf3929190611f7c565b60405180910390a15050565b6002818051602081018201805184825260208301602085012081835280955050505050506000915054906101000a900473ffffffffffffffffffffffffffffffffffffffff1681565b6000600283604051610d5a9190611e70565b908152602001604051809103902060009054906101000a900473ffffffffffffffffffffffffffffffffffffffff169050600073ffffffffffffffffffffffffffffffffffffffff168173ffffffffffffffffffffffffffffffffffffffff161415610dfb576040517f08c379a0000000000000000000000000000000000000000000000000000000008152600401610df290611ffc565b60405180910390fd5b600060405180608001604052803373ffffffffffffffffffffffffffffffffffffffff1681526020018373ffffffffffffffffffffffffffffffffffffffff168152602001848152602001428152509050600181908060018154018082558091505060019003906000526020600020906004020160009091909190915060008201518160000160006101000a81548173ffffffffffffffffffffffffffffffffffffffff021916908373ffffffffffffffffffffffffffffffffffffffff16021790555060208201518160010160006101000a81548173ffffffffffffffffffffffffffffffffffffffff021916908373ffffffffffffffffffffffffffffffffffffffff1602179055506040820151816002019080519060200190610f22929190611647565b506060820151816003015550508173ffffffffffffffffffffffffffffffffffffffff163373ffffffffffffffffffffffffffffffffffffffff167f3ce5202645e1d01d0fbb78feeb25527c05507b8ad97b043aff06094945b5836f8542604051610f8e929190611fac565b60405180910390a350505050565b6060600080805490501415610fe8576040518060400160405280600c81526020017f47454e455349535f484153480000000000000000000000000000000000000000815250905061104c565b61104960006001600080549050610fff9190612249565b81548110611036577f4e487b7100000000000000000000000000000000000000000000000000000000600052603260045260246000fd5b9060005260206000209060050201611296565b90505b90565b60008060018160018154018082558091505003906000526020600020906005020190506000805490508160000181905550428160010181905550828160030181905550818160040190805190602001906110aa929190611647565b5060005b60018054905081101561123d5781600201600182815481106110f9577f4e487b7100000000000000000000000000000000000000000000000000000000600052603260045260246000fd5b906000526020600020906004020190806001815401808255809150506001900390600052602060002090600402016000909190919091506000820160009054906101000a900473ffffffffffffffffffffffffffffffffffffffff168160000160006101000a81548173ffffffffffffffffffffffffffffffffffffffff021916908373ffffffffffffffffffffffffffffffffffffffff1602179055506001820160009054906101000a900473ffffffffffffffffffffffffffffffffffffffff168160010160006101000a81548173ffffffffffffffffffffffffffffffffffffffff021916908373ffffffffffffffffffffffffffffffffffffffff1602179055506002820181600201908054611212906122fb565b61121d9291906116cd565b5060038201548160030155505080806112359061232d565b9150506110ae565b506001600061124c919061175a565b7fe5596cc43bf3112848aa4f379f67c7b0f647eab05b9c4ec222899924616a7808816000015482600101548585604051611289949392919061201c565b60405180910390a1505050565b60606000826000015483600101548460030154856004016040516020016112c09493929190611e87565b60405160208183030381529060405290506112e181805190602001206112e9565b915050919050565b606060006040518060400160405280601081526020017f303132333435363738396162636465660000000000000000000000000000000081525090506000604067ffffffffffffffff811115611368577f4e487b7100000000000000000000000000000000000000000000000000000000600052604160045260246000fd5b6040519080825280601f01601f19166020018201604052801561139a5781602001600182028036833780820191505090505b50905060005b60208110156115e8578260048683602081106113e5577f4e487b7100000000000000000000000000000000000000000000000000000000600052603260045260246000fd5b1a60f81b7effffffffffffffffffffffffffffffffffffffffffffffffffffffffffffff1916901c60f81c60ff168151811061144a577f4e487b7100000000000000000000000000000000000000000000000000000000600052603260045260246000fd5b602001015160f81c60f81b8260028361146391906121ef565b8151811061149a577f4e487b7100000000000000000000000000000000000000000000000000000000600052603260045260246000fd5b60200101907effffffffffffffffffffffffffffffffffffffffffffffffffffffffffffff1916908160001a90535082600f60f81b868360208110611508577f4e487b7100000000000000000000000000000000000000000000000000000000600052603260045260246000fd5b1a60f81b1660f81c60ff168151811061154a577f4e487b7100000000000000000000000000000000000000000000000000000000600052603260045260246000fd5b602001015160f81c60f81b8260028361156391906121ef565b600161156f9190612199565b815181106115a6577f4e487b7100000000000000000000000000000000000000000000000000000000600052603260045260246000fd5b60200101907effffffffffffffffffffffffffffffffffffffffffffffffffffffffffffff1916908160001a90535080806115e09061232d565b9150506113a0565b508092505050919050565b6040518060800160405280600073ffffffffffffffffffffffffffffffffffffffff168152602001600073ffffffffffffffffffffffffffffffffffffffff16815260200160608152602001600081525090565b828054611653906122fb565b90600052602060002090601f01602090048101928261167557600085556116bc565b82601f1061168e57805160ff19168380011785556116bc565b828001600101855582156116bc579182015b828111156116bb5782518255916020019190600101906116a0565b5b5090506116c9919061177e565b5090565b8280546116d9906122fb565b90600052602060002090601f0160209004810192826116fb5760008555611749565b82601f1061170c5780548555611749565b8280016001018555821561174957600052602060002091601f016020900482015b8281111561174857825482559160010191906001019061172d565b5b509050611756919061177e565b5090565b508054600082556004029060005260206000209081019061177b919061179b565b50565b5b8082111561179757600081600090555060010161177f565b5090565b5b8082111561181457600080820160006101000a81549073ffffffffffffffffffffffffffffffffffffffff02191690556001820160006101000a81549073ffffffffffffffffffffffffffffffffffffffff02191690556002820160006118039190611818565b60038201600090555060040161179c565b5090565b508054611824906122fb565b6000825580601f106118365750611855565b601f016020900490600052602060002090810190611854919061177e565b5b50565b600061186b61186684612099565b612068565b90508281526020810184848401111561188357600080fd5b61188e8482856122b9565b509392505050565b6000813590506118a58161241e565b92915050565b600082601f8301126118bc57600080fd5b81356118cc848260208601611858565b91505092915050565b6000813590506118e481612435565b92915050565b6000602082840312156118fc57600080fd5b600082013567ffffffffffffffff81111561191657600080fd5b611922848285016118ab565b91505092915050565b6000806040838503121561193e57600080fd5b600083013567ffffffffffffffff81111561195857600080fd5b611964858286016118ab565b925050602061197585828601611896565b9150509250929050565b6000806040838503121561199257600080fd5b600083013567ffffffffffffffff8111156119ac57600080fd5b6119b8858286016118ab565b925050602083013567ffffffffffffffff8111156119d557600080fd5b6119e1858286016118ab565b9150509250929050565b6000602082840312156119fd57600080fd5b6000611a0b848285016118d5565b91505092915050565b6000611a208383611d5b565b905092915050565b6000611a348383611dd8565b905092915050565b611a458161227d565b82525050565b611a548161227d565b82525050565b6000611a65826120fe565b611a6f8185612139565b935083602082028501611a81856120c9565b8060005b85811015611abd5784840389528151611a9e8582611a14565b9450611aa98361211f565b925060208a01995050600181019050611a85565b50829750879550505050505092915050565b6000611ada82612109565b611ae4818561214a565b935083602082028501611af6856120d9565b8060005b85811015611b325784840389528151611b138582611a28565b9450611b1e8361212c565b925060208a01995050600181019050611afa565b50829750879550505050505092915050565b6000611b4f82612109565b611b59818561215b565b935083602082028501611b6b856120d9565b8060005b85811015611ba75784840389528151611b888582611a28565b9450611b938361212c565b925060208a01995050600181019050611b6f565b50829750879550505050505092915050565b6000611bc482612114565b611bce818561216c565b9350611bde8185602086016122c8565b611be78161240d565b840191505092915050565b6000611bfd82612114565b611c07818561217d565b9350611c178185602086016122c8565b611c208161240d565b840191505092915050565b6000611c3682612114565b611c40818561218e565b9350611c508185602086016122c8565b80840191505092915050565b60008154611c69816122fb565b611c73818661218e565b94506001821660008114611c8e5760018114611c9f57611cd2565b60ff19831686528186019350611cd2565b611ca8856120e9565b60005b83811015611cca57815481890152600182019150602081019050611cab565b838801955050505b50505092915050565b6000611ce8600f8361217d565b91507f496e76616c6964206164647265737300000000000000000000000000000000006000830152602082019050919050565b6000611d28601b8361217d565b91507f526563697069656e742061646472657373206e6f7420666f756e6400000000006000830152602082019050919050565b600060a083016000830151611d736000860182611e3b565b506020830151611d866020860182611e3b565b5060408301518482036040860152611d9e8282611acf565b9150506060830151611db36060860182611e3b565b5060808301518482036080860152611dcb8282611bb9565b9150508091505092915050565b6000608083016000830151611df06000860182611a3c565b506020830151611e036020860182611a3c565b5060408301518482036040860152611e1b8282611bb9565b9150506060830151611e306060860182611e3b565b508091505092915050565b611e44816122af565b82525050565b611e53816122af565b82525050565b611e6a611e65826122af565b612376565b82525050565b6000611e7c8284611c2b565b915081905092915050565b6000611e938287611e59565b602082019150611ea38286611e59565b602082019150611eb38285611e59565b602082019150611ec38284611c5c565b915081905095945050505050565b6000602082019050611ee66000830184611a4b565b92915050565b6000608082019050611f016000830187611a4b565b611f0e6020830186611a4b565b8181036040830152611f208185611bf2565b9050611f2f6060830184611e4a565b95945050505050565b60006020820190508181036000830152611f528184611a5a565b905092915050565b60006020820190508181036000830152611f748184611b44565b905092915050565b60006040820190508181036000830152611f968185611bf2565b9050611fa56020830184611a4b565b9392505050565b60006040820190508181036000830152611fc68185611bf2565b9050611fd56020830184611e4a565b9392505050565b60006020820190508181036000830152611ff581611cdb565b9050919050565b6000602082019050818103600083015261201581611d1b565b9050919050565b60006080820190506120316000830187611e4a565b61203e6020830186611e4a565b61204b6040830185611e4a565b818103606083015261205d8184611bf2565b905095945050505050565b6000604051905081810181811067ffffffffffffffff8211171561208f5761208e6123de565b5b8060405250919050565b600067ffffffffffffffff8211156120b4576120b36123de565b5b601f19601f8301169050602081019050919050565b6000819050602082019050919050565b6000819050602082019050919050565b60008190508160005260206000209050919050565b600081519050919050565b600081519050919050565b600081519050919050565b6000602082019050919050565b6000602082019050919050565b600082825260208201905092915050565b600082825260208201905092915050565b600082825260208201905092915050565b600082825260208201905092915050565b600082825260208201905092915050565b600081905092915050565b60006121a4826122af565b91506121af836122af565b9250827fffffffffffffffffffffffffffffffffffffffffffffffffffffffffffffffff038211156121e4576121e3612380565b5b828201905092915050565b60006121fa826122af565b9150612205836122af565b9250817fffffffffffffffffffffffffffffffffffffffffffffffffffffffffffffffff048311821515161561223e5761223d612380565b5b828202905092915050565b6000612254826122af565b915061225f836122af565b92508282101561227257612271612380565b5b828203905092915050565b60006122888261228f565b9050919050565b600073ffffffffffffffffffffffffffffffffffffffff82169050919050565b6000819050919050565b82818337600083830152505050565b60005b838110156122e65780820151818401526020810190506122cb565b838111156122f5576000848401525b50505050565b6000600282049050600182168061231357607f821691505b60208210811415612327576123266123af565b5b50919050565b6000612338826122af565b91507fffffffffffffffffffffffffffffffffffffffffffffffffffffffffffffffff82141561236b5761236a612380565b5b600182019050919050565b6000819050919050565b7f4e487b7100000000000000000000000000000000000000000000000000000000600052601160045260246000fd5b7f4e487b7100000000000000000000000000000000000000000000000000000000600052602260045260246000fd5b7f4e487b7100000000000000000000000000000000000000000000000000000000600052604160045260246000fd5b6000601f19601f8301169050919050565b6124278161227d565b811461243257600080fd5b50565b61243e816122af565b811461244957600080fd5b5056fea26469706673582212203ac4371d999602821845e706d3554374ee259eea801e562c66c1b5d52a0a4d6c64736f6c63430008000033",
  "immutableReferences": {},
  "source": "// SPDX-License-Identifier: MIT\r\npragma solidity ^0.8.0;\r\n\r\ncontract DrugTraceability {\r\n    // Struct for storing transaction details\r\n    struct Transaction {\r\n        address sender;\r\n        address recipient;\r\n        string drugName;\r\n        uint256 timestamp;\r\n    }\r\n\r\n    // Struct for storing block details\r\n    struct Block {\r\n        uint256 index;\r\n        uint256 timestamp;\r\n        Transaction[] transactions;\r\n        uint256 proof;\r\n        string previousHash;\r\n    }\r\n\r\n    // Blockchain and transaction storage\r\n    Block[] public blockchain;\r\n    Transaction[] public currentTransactions;\r\n\r\n    // Mapping from recipient name to address\r\n    mapping(string => address) public recipientAddresses;\r\n\r\n    // Events\r\n    event NewBlock(uint256 index, uint256 timestamp, uint256 proof, string previousHash);\r\n    event NewTransaction(address indexed sender, address indexed recipient, string drugName, uint256 timestamp);\r\n    event RecipientRegistered(string name, address recipient);\r\n\r\n    // Constructor to create the genesis block and assign a default recipient\r\n    constructor() {\r\n        _createBlock(100, \"GENESIS_HASH\");\r\n        registerRecipient(\"John Doe\", 0x1234567890AbcdEF1234567890aBcdef12345678); // Replace with a valid address\r\n    }\r\n\r\n    // Private function to create a new block\r\n    function _createBlock(uint256 proof, string memory previousHash) private {\r\n        Block storage newBlock = blockchain.push();\r\n        newBlock.index = blockchain.length;\r\n        newBlock.timestamp = block.timestamp;\r\n        newBlock.proof = proof;\r\n        newBlock.previousHash = previousHash;\r\n\r\n        for (uint256 i = 0; i < currentTransactions.length; i++) {\r\n            newBlock.transactions.push(currentTransactions[i]);\r\n        }\r\n\r\n        delete currentTransactions;\r\n\r\n        emit NewBlock(newBlock.index, newBlock.timestamp, proof, previousHash);\r\n    }\r\n\r\n    // Function to register a recipient name and address\r\n    function registerRecipient(string memory recipientName, address recipientAddress) public {\r\n        require(recipientAddress != address(0), \"Invalid address\");\r\n        recipientAddresses[recipientName] = recipientAddress;\r\n\r\n        emit RecipientRegistered(recipientName, recipientAddress);\r\n    }\r\n\r\n    // Function to create a new transaction\r\n    function createTransaction(string memory recipientName, string memory drugName) public {\r\n        address recipient = recipientAddresses[recipientName];\r\n        require(recipient != address(0), \"Recipient address not found\");\r\n\r\n        Transaction memory transaction = Transaction({\r\n            sender: msg.sender,\r\n            recipient: recipient,\r\n            drugName: drugName,\r\n            timestamp: block.timestamp\r\n        });\r\n\r\n        currentTransactions.push(transaction);\r\n\r\n        emit NewTransaction(msg.sender, recipient, drugName, block.timestamp);\r\n    }\r\n\r\n    // Function to mine a new block\r\n    function mineBlock(uint256 proof) public {\r\n        string memory previousHash = _hashLastBlock();\r\n        _createBlock(proof, previousHash);\r\n    }\r\n\r\n    // Private function to hash the last block\r\n    function _hashLastBlock() private view returns (string memory) {\r\n        if (blockchain.length == 0) {\r\n            return \"GENESIS_HASH\";\r\n        }\r\n        return _hashBlock(blockchain[blockchain.length - 1]);\r\n    }\r\n\r\n    // Private function to hash a block\r\n    function _hashBlock(Block storage targetBlock) private view returns (string memory) {\r\n        bytes memory blockData = abi.encodePacked(\r\n            targetBlock.index,\r\n            targetBlock.timestamp,\r\n            targetBlock.proof,\r\n            targetBlock.previousHash\r\n        );\r\n\r\n        return _toHexString(keccak256(blockData));\r\n    }\r\n\r\n    // Private function to convert bytes32 to hexadecimal string\r\n    function _toHexString(bytes32 hash) private pure returns (string memory) {\r\n        bytes memory alphabet = \"0123456789abcdef\";\r\n        bytes memory str = new bytes(64);\r\n\r\n        for (uint256 i = 0; i < 32; i++) {\r\n            str[i * 2] = alphabet[uint8(hash[i] >> 4)];\r\n            str[1 + i * 2] = alphabet[uint8(hash[i] & 0x0f)];\r\n        }\r\n\r\n        return string(str);\r\n    }\r\n\r\n    // Function to retrieve all transactions from the blockchain\r\n    function getAllTransactions() public view returns (Transaction[] memory) {\r\n        uint256 totalTxs = 0;\r\n\r\n        for (uint256 i = 0; i < blockchain.length; i++) {\r\n            totalTxs += blockchain[i].transactions.length;\r\n        }\r\n\r\n        Transaction[] memory allTxs = new Transaction[](totalTxs);\r\n        uint256 counter = 0;\r\n\r\n        for (uint256 i = 0; i < blockchain.length; i++) {\r\n            for (uint256 j = 0; j < blockchain[i].transactions.length; j++) {\r\n                allTxs[counter] = blockchain[i].transactions[j];\r\n                counter++;\r\n            }\r\n        }\r\n\r\n        return allTxs;\r\n    }\r\n\r\n    // Getter functions\r\n    function getBlockchain() public view returns (Block[] memory) {\r\n        return blockchain;\r\n    }\r\n\r\n    function getCurrentTransactions() public view returns (Transaction[] memory) {\r\n        return currentTransactions;\r\n    }\r\n}\r\n",
  "sourcePath": "D:\\drug\\contracts\\DrugTraceability.sol",
  "compiler": {
    "name": "solc",
    "version": "0.8.0+commit.c7dfd78e.Emscripten.clang"
  },
  "schemaVersion": "3.4.16",
  "updatedAt": "2024-12-04T04:02:30.260Z",
  "networkType": "ethereum",
  "devdoc": {
    "kind": "dev",
    "methods": {},
    "version": 1
  },
  "userdoc": {
    "kind": "user",
    "methods": {},
    "version": 1
  }
}